:0200000069286D
:10000800FF00030E8301A8000A08A9008A017008EE
:10001800A3007B08A2007C08A1007D08A0008B1C1F
:1000280047288B1000302506031D1C2801302406A4
:10003800031D33288801881488151F30FB00713090
:10004800FC001E30FD00FD0B2728FC0B2728FB0BAE
:100058002728000088100815A409A5094728880141
:10006800081608141F30FB007130FC001E30FD001C
:10007800FD0B3C28FC0B3C28FB0B3C28000008121D
:100088008816A409A5092308F0002208FB00210806
:10009800FC002008FD0029088A00280E8300FF0EB6
:0400A8007F0E0900BE
:0E00AC008312031327088A002608820008002A
:1000BA0056208A110A128000840AA60A0319A70A7E
:0800CA00F003031D5D2808008E
:1000D200013083120313A400A5014230A6000130AF
:1000E200A7002A3084002C30F0005D2007308316F0
:1000F2009F008601870188013F30850083128601B7
:1001020087018801831205184029851C3729F101CE
:100112007108173C031CC6280230FB000430FC00A7
:10012200BA30FD00FD0B9328FC0B9328FB0B9328A0
:10013200000005189F28851C9F28A328FF308700F0
:100142008801C628870171082A3E840000088600BB
:100152000630FB001330FC00AD30FD00FD0BAF2874
:10016200FC0BAF28FB0BAF28000000000812881020
:1001720008110814143071020318C2288811881655
:10018200C42888120816F10A8928F20172080F3C65
:10019200031C02290230FB000430FC00BA30FD00CF
:1001A200FD0BD128FC0BD128FB0BD1280000051830
:1001B200DD28851CDD28E128FF308700880102291F
:1001C2007208423E8400000886000630FB001330AD
:1001D200FC00AD30FD00FD0BEC28FC0BEC28FB0B0A
:1001E200EC28000000000812881503307202031880
:1001F200FD28081088140029081088100815F20A32
:10020200C728F3017308033C031C36290230FB00A4
:100212000430FC00BA30FD00FD0B0D29FC0B0D294A
:10022200FB0B0D29000005181929851C19291D2908
:10023200FF308700880136297308523E8400000887
:1002420086000630FB001330FC00AD30FD00FD0BD4
:100252002829FC0B2829FB0B282900000000881103
:10026200081108168814F30A0329862885183F29DD
:100272008601831606148B170B1601178328832811
:02028200412910
:1002840023342234213420341934183417341634E6
:10029400153414341334123411341034093408343A
:1002A400073406340534043403340234013400348E
:1002B400153414341334123411341034093408341A
:1002C400073406340534043403340234013400346E
:0802D40003340234013400344C
:02400E004A2F37
:00000001FF
